S016000063757272656E74636F6E74726F6C2E737265630A
S113000063C00000DFC40000E7C40000EFC40000C8
S1130010F7C40000FFC4000007C500000FC50000BE
S113002017C500001FC5000027C500002FC500002C
S113003037C500003FC5000047C500004FC500009C
S113004057C50000A0C50000A8C50000CEC500002B
S1130050D6C50000DEC50000E6C50000EEC5000000
S1130060F6C50000FEC5000006C600000EC600006E
S113007016C600001EC6000026C6000069C60000A1
S113008071C6000079C6000081C600004E414E4989
S11300904E495459494E46CDCCCC3D0AD7233C1742
S11300A0B7D13877CC2B329595E6241FB14F0A008F
S11300B00020410000C84200401C4620BCBE4CCA7F
S11300C01B0E5AAEC59D740011241FBECFEFD0E1A4
S11300D0DEBFCDBF11E0A0E0B1E0ECE1FEE100E065
S11300E00BBF02C007900D92A032B107D9F722E0EE
S11300F0A0E2B1E001C01D92AF3FB207E1F7A6D381
S11301000C940C0F80E090E0A0ECBFE380934301DB
S113011090934401A0934501B09346011092790154
S113012010927A0110927B0110927C018DEC9CEC70
S1130130ACE4BEE38093520190935301A093540125
S1130140B093550120EE3EE230934E0120934D01D1
S113015080E291ED90939C0180939B013093480140
S11301602093470190934C0180934B0110925701C7
S11301701092560110924201109241018EEC9FEFB1
S113018090935101809350018EE690E090934A0140
S11301908093490180E090E0A0E8BFE380930201EE
S11301A090930301A0930401B093050108958B304B
S11301B009F072C081ED91E00E94570A60934301F7
S11301C070934401809345019093460185EE91E03C
S11301D00E94570A60935201709353018093540113
S11301E09093550189EF91E00E94570A6093790139
S11301F070937A0180937B0190937C018DE092E06F
S11302000E945A0A90939C0180939B0181E292E0A0
S11302100E945A0A90934E0180934D0185E392E027
S11302200E945A0A90934C0180934B0189E492E016
S11302300E945A0A90934801809347018DE592E009
S11302400E945A0A909357018093560181E792E0E5
S11302500E945A0A909342018093410185E892E0FA
S11302600E945A0A909351018093500189E992E0C7
S11302700E945A0A90934A01809349018DEA92E0C0
S11302800E94570A60930201709303018093040152
S11302909093050181E0089580E0089581E08093C2
S11302A0580180E090E0A0ECBFE38093610190935B
S11302B06201A0936301B09364018DEC9CECACE407
S11302C0BEE38093690190936A01A0936B01B0939C
S11302D06C011092650110926601109267011092F0
S11302E0680120E231ED30935A012093590180EEE8
S11302F09EE290935C0180935B0130935E012093B6
S11303005D019093600180935F0110926E011092E1
S11303106D011092700110926F018EEC9FEF90931B
S11303207201809371018EE690E090937401809342
S1130330730180E090E0A0E8BFE38093750190939F
S11303407601A0937701B093780141E250E060E038
S113035070E088E591E00C94C50C089541E250E00A
S113036060E070E088E591E00E94B50C809158014E
S11303708F3F19F493DFC6CE089580916101909167
S11303806201A0916301B091640180934301909351
S11303904401A0934501B093460180916901909175
S11303A06A01A0916B01B0916C018093520190930A
S11303B05301A0935401B09355018091650190912C
S11303C06601A0916701B0916801809379019093CF
S11303D07A01A0937B01B0937C01809159019091A3
S11303E05A0190939C0180939B0180915B019091B1
S11303F05C0190934E0180934D0180915D01909139
S11304005E0190934C0180934B0180915F01909128
S11304106001909348018093470180916D01909110
S11304206E01909357018093560180916F019091D2
S113043070019093420180934101809171019091E8
S113044072019093510180935001809173019091B6
S1130450740190934A0180934901809175019091B0
S11304607601A0917701B091780180930201909375
S11304700301A0930401B0930501089581E08093E2
S113048058018091430190914401A0914501B0919C
S113049046018093610190936201A0936301B0933C
S11304A064018091520190915301A0915401B09143
S11304B055018093690190936A01A0936B01B093F5
S11304C06C018091790190917A01A0917B01B091A6
S11304D07C018093650190936601A0936701B093BA
S11304E0680180919B0190919C0190935A018093A3
S11304F0590180914D0190914E0190935C0180933C
S11305005B0180914B0190914C0190935E0180932B
S11305105D0180914701909148019093600180931F
S11305205F01809156019091570190936E018093E1
S11305306D018091410190914201909370018093EB
S11305406F018091500190915101909372018093B9
S113055071018091490190914A01909374018093B3
S113056073018091020190910301A0910401B09163
S113057005018093750190937601A0937701B09360
S1130580780141E250E060E070E088E591E00C948D
S1130590C50C0895CF92DF92EF92FF92882309F45D
S11305A047C02DEC3CEC4CEC5DE360910201709192
S11305B0030180910401909105019AD56B017C019E
S11305C020E030E040E050E4DED6181644F580E048
S11305D090E0A0E0B0E48093020190930301A09323
S11305E00401B093050126E636E646E65FE3609132
S11305F00201709103018091040190910501DCD501
S1130600882364F586E696E6A6E6BFE380930201B6
S113061090930301A0930401B09305011FC0C092FD
S11306200201D0920301E0920401F0920501DBCFB4
S11306302DEC3CEC4CEC5DE3609102017091030104
S1130640809104019091050152D560930201709349
S113065003018093040190930501C5CFFF90EF90AF
S1130660DF90CF900895877090912601913059F0D2
S113067018F09230C9F00895AC98AB9A8130D9F44F
S1130680809326010895AC9AAB98833019F481E0E5
S113069081CF0895843019F480E07CCF08958230AE
S11306A051F4809326010895AC98AB98809127016A
S11306B08F5F80932701089583B7856083BF82B7D6
S11306C0846682BF87B7816087BF08951EBC1FBC44
S11306D08FB582628FBD8EB581618EBD80E496E058
S11306E097BD86BD0895EF92FF920F931F93E090FC
S11306F07901F0907A0100917B0110917C012091A5
S1130700520130915301409154015091550160912F
S1130710430170914401809145019091460140D379
S113072060EE7EE280E291ED65D31F910F91FF9020
S1130730EF900895CF93DF9380E02CD1EC0181E01A
S113074029D120E030E040E85FE3BC01CE015BD377
S11307502091240130912501820F931F909325014C
S113076080932401813426E0920714F080E496E01B
S1130770992314F480E090E0DF91CF9108958FEFF6
S113078087BB18BA98E194BB85BB81B38E6F81BBDC
S113079008958770823089F018F4813031F00BC0ED
S11307A0843029F0873029F006C082E0089584E07F
S11307B0089581E0089580E0089583E00895282F46
S11307C0409122015091230141155105B9F0E82FC0
S11307D0F0E06091200170912101E617F70781F59F
S11307E0433051057CF54F5F5F4F50932301409395
S11307F022014330510541F1452B71F4422F50E061
S1130800509321014093200141E050E05093230193
S11308104093220180E001C080E030E0409120015B
S1130820509121012417350781F030932101209341
S1130830200121E030E03093230120932201089528
S113084080E0EBCF80E0E9CFE8CF089548E966E0A7
S113085080E190E0B7D388E494D0482F60E480E846
S113086092D08DDF29DF32DF79DD3DDF82E191E057
S1130870BAD310922601AC98AB9A789481E0809315
S11308804F01C12CD12C0F2EFAE1AF2EF1E0BF2E77
S1130890F02DCDE7D1E080912A018823C9F083B3FC
S11308A08095877076DF8BDF182F1F928F93BF920E
S11308B0AF92DF93CF933DD6CE0195D3812FD3DE74
S11308C010922A010F900F900F900F900F900F909D
S11308D080912701882329F0D1DD109227011092FD
S11308E0260180912901882321F024DF6C011092D4
S11308F0290180914F01882319F0D9BCC8BC02C0DA
S113090019BC18BC80912801882309F4C4CF6CE277
S11309108EE991E0A4D34BDC882381F1E090790146
S1130920F0907A0100917B0110917C012091520199
S1130930309153014091540150915501609143010C
S113094070914401809145019091460129D26091B2
S11309504D0170914E0180919B0190919C0141D277
S1130960609147017091480180914B0190914C0135
S113097041D2809127018F5F809327011092280133
S11309808ACF80E0089596B1892B86B986B186B95D
S113099067B9089597B18770987F982B97B9369A5D
S11309A03699FECF84B125B190E0922B089580E072
S11309B090E0FC01E256FE4F1082019682339105CD
S11309C0C1F708951F920F920FB60F9211240F9042
S11309D00FBE0F901F9018951F920F920FB60F9293
S11309E011240F900FBE0F901F9018951F920F9215
S11309F00FB60F9211240F900FBE0F901F901895F1
S1130A001F920F920FB60F9211240F900FBE0F90EA
S1130A101F9018951F920F920FB60F9211240F90EA
S1130A200FBE0F901F9018951F920F920FB60F9242
S1130A3011240F900FBE0F901F9018951F920F92C4
S1130A400FB60F9211240F900FBE0F901F901895A0
S1130A501F920F920FB60F9211240F900FBE0F909A
S1130A601F9018951F920F920FB60F9211240F909A
S1130A700FBE0F901F9018951F920F920FB60F92F2
S1130A8011240F900FBE0F901F9018951F920F9274
S1130A900FB60F9211240F900FBE0F901F90189550
S1130AA01F920F920FB60F9211240F900FBE0F904A
S1130AB01F9018951F920F920FB60F9211240F904A
S1130AC00FBE0F901F9018951F920F920FB60F92A2
S1130AD011240F900FBE0F901F9018951F920F9224
S1130AE00FB60F9211240F900FBE0F901F90189500
S1130AF01F920F920FB60F9211242F933F935F937F
S1130B006F937F938F939F93AF93BF9320912B0108
S1130B1030912C012F5F3F4F30932C0120932B01F8
S1130B206091060170910701C90194D4892B29F4BD
S1130B30809129018F5F8093290160910801709150
S1130B400901C90187D4892B29F480912A018F5F77
S1130B5080932A01809100019091010182179307EB
S1130B6020F410922C0110922B01BF91AF919F9110
S1130B708F917F916F915F913F912F910F900FBE55
S1130B800F901F9018951F920F920FB60F92112479
S1130B900F900FBE0F901F9018951F920F920FB6D3
S1130BA00F9211240BB60F922F933F934F935F93A1
S1130BB06F937F938F939F93AF93BF93EF93FF9321
S1130BC04AD209D2FF91EF91BF91AF919F918F913A
S1130BD07F916F915F914F913F912F910F900BBE39
S1130BE00F900FBE0F901F9018951F920F920FB683
S1130BF00F9211240F900FBE0F901F9018951F9203
S1130C000F920FB60F9211240F900FBE0F901F90EA
S1130C1018951F920F920FB60F9211240F900FBECA
S1130C200F901F9018951F920F920FB60F921124D8
S1130C300F900FBE0F901F9018951F920F920FB632
S1130C400F9211240F900FBE0F901F9018951F92B2
S1130C500F920FB60F9211240F900FBE0F901F909A
S1130C6018951F920F920FB60F9211240F900FBE7A
S1130C700F901F9018951F920F920FB60F92112488
S1130C800F900FBE0F901F9018951F920F920FB6E2
S1130C900F9211240F900FBE0F901F9018951F9262
S1130CA00F920FB60F9211240F900FBE0F901F904A
S1130CB018951F920F920FB60F9211240F900FBE2A
S1130CC00F901F9018951F920F920FB60F92112438
S1130CD00BB60F922F933F934F935F936F937F9332
S1130CE08F939F93AF93BF93CF93EF93FF93A7D12A
S1130CF0C82FADD1CC3731F41092D00181E080936C
S1130D009D0112C0E091D001F0E0E256FE4FC08395
S1130D108091D0018F5F8093D0018091D001843382
S1130D2018F01092D00143DEFF91EF91CF91BF9163
S1130D30AF919F918F917F916F915F914F913F916F
S1130D402F910F900BBE0F900FBE0F901F90189510
S1130D501F920F920FB60F9211240F900FBE0F9097
S1130D601F9018951F920F920FB60F9211240F9097
S1130D700FBE0F901F9018951F920F920FB60F92EF
S1130D8011240F900FBE0F901F9018951F920F9271
S1130D900FB60F9211240F900FBE0F901F9018954D
S1130DA0EF92FF920F931F9360933D0170933E0166
S1130DB080933F01909340012093390130933A018D
S1130DC040933B0150933C01E0923501F09236018F
S1130DD000933701109338011F910F91FF90EF900A
S1130DE00895909311018093100170930F01609303
S1130DF00E01089590930D0180930C0170930B01E3
S1130E0060930A0108954F925F926F927F928F923E
S1130E109F92AF92BF92CF92DF92EF92FF920F9385
S1130E201F93CF93DF93861B970B9093340180938A
S1130E30330120913301309134018091100190915C
S1130E401101281739074CF4809110019091110178
S1130E50909334018093330113C020913301309176
S1130E60340180910E0190910F018217930744F48D
S1130E7080910E0190910F0190933401809333017E
S1130E8020913101309132018091310190913201F0
S1130E90820F931F9093320180933101209131018D
S1130EA03091320180910C0190910D01281739077E
S1130EB04CF480910C0190910D0190933201809338
S1130EC0310113C0209131013091320180910A0126
S1130ED090910B018217930744F480910A01909139
S1130EE00B01909332018093310180912D019091F7
S1130EF02E01861B970B9093300180932F017093E2
S1130F002E0160932D016091330170913401C090E2
S1130F103D01D0903E01E0903F01F0904001C0912E
S1130F203101D09132014090390150903A016090E2
S1130F303B0170903C0100912F0110913001809091
S1130F40350190903601A0903701B0903801882780
S1130F5077FD8095982F67D1A701960118D26B0170
S1130F607C01BE01882777FD8095982F5CD1A30171
S1130F7092010DD29B01AC01C701B601B9D06B013E
S1130F807C01B801882777FD8095982F4CD1A50165
S1130F909401FDD19B01AC01C701B601A9D010D1C8
S1130FA0CB01DF91CF911F910F91FF90EF90DF90D4
S1130FB0CF90BF90AF909F908F907F906F905F90F5
S1130FC04F900895909398008093990040939A00CD
S1130FD060939D000895EBE9F0E0908195FFFDCFCB
S1130FE080939C000895EF92FF920F931F93CF93E9
S1130FF0DF93FC01DC010D900020E9F711977D01DE
S1131000E81AF90A1E141F049CF48081882381F0D5
S11310108F010F5F1F4FC0E0D0E005C0F801819140
S11310208F01882329F0D7DF2196EC16FD06B1F74E
S1131030DF91CF911F910F91FF90EF900895EBE90D
S1131040F0E080818823ECF780919C0008955D9BFB
S1131050FECF8CB908955F9BFECF8CB108958F921B
S11310609F92AF92BF92CF92DF92EF92FF920F9333
S11310701F93CF93DF93EC01912CA62EB12C0F2E4E
S1131080F4E18F2EF02DB501CE0131D28C01009701
S1131090B1F07C01EC1AFD0A899C60011124A701BE
S11310A0BE01C6018F529E4F2DD2F601EE0DFF1DDB
S11310B0EF52FE4F10829394E8012196E4CF24E18D
S11310C0929EC001112444E150E0BE018F529E4F14
S11310D019D2892DDF91CF911F910F91FF90EF903D
S11310E0DF90CF90BF90AF909F908F90089550580D
S11310F0BB27AA270ED00DC1FED030F003D120F0BB
S113110031F49F3F11F41EF4F3C00EF4E095E7FBB5
S1131110E9C0E92F0FD180F3BA1762077307840778
S1131120950718F071F49EF527C10EF4E0950B2E87
S1131130BA2FA02D0B01B90190010C01CA01A00125
S11311401124FF27591B99F0593F50F4503E68F180
S11311501A16F040A22F232F342F4427585FF3CFC1
S1131160469537952795A795F0405395C9F77EF492
S11311701F16BA0B620B730B840BBAF09150A1F0DB
S1131180FF0FBB1F661F771F881FC2F70EC0BA0F61
S1131190621F731F841F48F4879577956795B795E9
S11311A0F7959E3F08F0B3CF9395880F08F09927E1
S11311B0EE0F97958795089571D008F481E008950E
S11311C004D06894B111D9C00895BCD088F09F5759
S11311D090F0B92F9927B751A0F0D1F0660F771F7F
S11311E0881F991F1AF0BA95C9F712C0B13081F05F
S11311F0C3D0B1E00895C0C0672F782F8827B85FA7
S113120039F0B93FCCF3869577956795B395D9F7BF
S11312103EF490958095709561957F4F8F4F9F4FC9
S11312200895E89409C097FB3EF4909580957095D5
S113123061957F4F8F4F9F4F9923A9F0F92F96E91E
S1131240BB279395F695879577956795B795F11193
S1131250F8CFFAF4BB0F11F460FF1BC06F5F7F4F30
S11312608F4F9F4F16C0882311F096E911C0772342
S113127021F09EE8872F762F05C0662371F096E84B
S1131280862F70E060E02AF09A95660F771F881F1A
S1131290DAF7880F9695879597F90895990F0008BE
S11312A0550FAA0BE0E8FEEF16161706E807F90734
S11312B0C0F012161306E407F50798F0621B730BCF
S11312C0840B950B39F40A2661F0232B242B252B50
S11312D021F408950A2609F4A140A6958FEF811DF3
S11312E0811D089597F99F6780E870E060E0089594
S11312F09FEF80EC089500240A941616170618062A
S11313000906089500240A94121613061406050605
S11313100895092E0394000C11F4882352F0BB0F96
S113132040F4BF2B11F460FF04C06F5F7F4F8F4FF9
S11313309F4F089557FD9058440F551F59F05F3F34
S113134071F04795880F97FB991F61F09F3F79F0E3
S113135087950895121613061406551FF2CF469565
S1131360F1DF08C0161617061806991FF1CF8695E7
S11313707105610508940895E894BB2766277727CB
S1131380CB0197F908958ADF08F48FEF08950BD005
S1131390C0CFB1DF28F0B6DF18F0952309F0A2CF53
S11313A0A7CF1124EACFC6DFA0F3959FD1F3950F01
S11313B050E0551F629FF001729FBB27F00DB11DD5
S11313C0639FAA27F00DB11DAA1F649F6627B00D65
S11313D0A11D661F829F2227B00DA11D621F739F4E
S11313E0B00DA11D621F839FA00D611D221F749F5C
S11313F03327A00D611D231F849F600D211D822FA3
S1131400762F6A2F11249F5750408AF0E1F08823E9
S11314104AF0EE0FFF1FBB1F661F771F881F9150F6
S11314205040A9F79E3F510570F05CCFA6CF5F3FB7
S1131430ECF3983EDCF3869577956795B795F79529
S1131440E7959F5FC1F7FE2B880F911D96958795B1
S113145097F90895AA1BBB1B51E107C0AA1FBB1F24
S1131460A617B70710F0A61BB70B881F991F5A952C
S1131470A9F780959095BC01CD010895A29FB00174
S1131480B39FC001A39F700D811D1124911DB29FB4
S1131490700D811D1124911D0895F0DFA59F900DFD
S11314A0B49F900DA49F800D911D1124089566276B
S11314B0772781C2FC0188279927E894219120325B
S11314C0E9F3293010F02E30C8F32B3239F02D32E5
S11314D031F4689403C025D0820F911D21912053CB
S11314E02A30C8F31EF4909581959F4F0895FC010E
S11314F08191861721F08823D9F799270895319788
S1131500CF010895FB01DC014150504048F00190A7
S11315100D920020C9F701C01D9241505040E0F7E0
S113152008957AE0979F902D879F802D910D112427
S113153008950F931F93CF93DF93CDB7DEB72E9704
S11315400FB6F894DEBF0FBECDBF0D891E8986E0AD
S11315508C831A8309838FEF9FE79E838D83AE016B
S1131560475E5F4F6F89788DCE01019610D0EF8171
S1131570F885E00FF11F10822E960FB6F894DEBFA7
S11315800FBECDBFDF91CF911F910F9108952F9280
S11315903F924F925F926F927F928F929F92AF92FF
S11315A0BF92CF92DF92EF92FF920F931F93CF934C
S11315B0DF93CDB7DEB72C970FB6F894DEBF0FBE1E
S11315C0CDBF7C016B018A01FC01178216828381E5
S11315D081FFB0C1CE0101964C01F7019381F60160
S11315E093FD859193FF81916F01882309F49EC136
S11315F0853239F493FD859193FF81916F01853292
S113160021F4B70190E075D3E8CF512C312C20E0C0
S11316102032A0F48B3269F030F4803259F08332F6
S113162069F420612CC08D3239F0803339F42160A3
S113163026C02260246023C0286021C027FD27C063
S113164030ED380F3A3078F426FF06C0FAE05F9E9A
S1131650300D1124532E13C08AE0389E300D11240E
S1131660332E20620CC08E3221F426FD5FC120642B
S113167006C08C3611F4206802C0883641F4F601A5
S113168093FD859193FF81916F018111C1CF982FB3
S11316909F7D9554933028F40C5F1F4FFFE3F9832B
S11316A00DC0833631F0833771F0833509F057C0AC
S11316B021C0F801808189830E5F1F4F4424439425
S11316C0512C540114C03801F2E06F0E711CF80162
S11316D0A080B18026FF03C0652D70E002C06FEFCB
S11316E07FEFC5012C87FAD22C0183012C852F773B
S11316F0222E16C03801F2E06F0E711CF801A08092
S1131700B18026FF03C0652D70E002C06FEF7FEF4C
S1131710C5012C87D8D22C012C852068222E830168
S113172023FC19C0832D90E048165906A0F4B70194
S113173080E290E0DED23A94F5CFF50127FC859162
S113174027FE81915F01B70190E0D3D231103A9422
S1131750F1E04F1A51084114510479F7DEC0843680
S113176011F0893631F5F80127FF07C060817181D6
S1131770828193810C5F1F4F08C06081718188272B
S113178077FD8095982F0E5F1F4F2F76B22E97FF0F
S113179009C090958095709561957F4F8F4F9F4FAD
S11317A02068B22E2AE030E0A401D5D2A82EA818D1
S11317B043C0853729F42F7EB22E2AE030E025C0BD
S11317C0F22FF97FBF2E8F36C1F018F4883579F0E7
S11317D0ADC0803719F0883721F0A8C02F2F2061C1
S11317E0B22EB4FE0DC08B2D8460B82E09C024FF28
S11317F00AC09F2F9660B92E06C028E030E005C0CD
S113180020E130E002C020E132E0F801B7FE07C079
S113181060817181828193810C5F1F4F06C060815A
S1131820718180E090E00E5F1F4FA40194D2A82E36
S1131830A818FB2DFF77BF2EB6FE0BC02B2D2E7FD5
S1131840A51450F4B4FE0AC0B2FC08C02B2D2E7EA1
S113185005C07A2C2B2D03C07A2C01C0752C24FFD3
S11318600DC0FE01EA0DF11D8081803311F4297E43
S113187009C022FF06C07394739404C0822F867833
S113188009F0739423FD12C020FF06C05A2C731470
S113189018F4530C5718732C731460F4B70180E2D6
S11318A090E02C8726D273942C85F6CF731410F411
S11318B0371801C0312C24FF11C0B70180E390E038
S11318C02C8717D22C8522FF16C021FF03C088E580
S11318D090E002C088E790E0B7010CC0822F8678C0
S11318E051F021FD02C080E201C08BE227FD8DE2B0
S11318F0B70190E0FED1A51430F4B70180E390E085
S1131900F8D15A94F8CFAA94F401EA0DF11D80811C
S1131910B70190E0EED1A110F6CF332009F45DCEEB
S1131920B70180E290E0E5D13A94F7CFF7018681E0
S1131930978102C08FEF9FEF2C960FB6F894DEBF0D
S11319400FBECDBFDF91CF911F910F91FF90EF900C
S1131950DF90CF90BF90AF909F908F907F906F90CB
S11319605F904F903F902F900895DC01CB01FC01D4
S1131970E199FECF06C0FFBBEEBBE09A31960DB2F3
S11319800D9241505040B8F70895DC01CB0102C0DC
S11319902D9105D041505040D8F70895262FE19954
S11319A0FECF9FBB8EBB2DBB0FB6F894E29AE19A93
S11319B00FBE019608958F929F92AF92BF92CF92DD
S11319C0DF92EF92FF920F931F93CF93DF938B01DC
S11319D06115710521F0DB018C9311969C93EC0148
S11319E05E01BFEFAB1ABB0A7501C8808C2D90E075
S11319F04AD1892B11F0E501F3CFEDE2CE1208C0F4
S1131A007E01F2E0EF0EF11CC980DD24D39409C0FD
S1131A102BE2C21205C07E0142E0E40EF11CC98033
S1131A20D12CE701219743E050E064E970E0CE0156
S1131A3032D1892BB9F4239645E050E06FE870E089
S1131A40CE0129D1892B09F425960115110519F028
S1131A50D801CD93DC93D11000C160E070E080E840
S1131A609FE704C143E050E06CE870E0CE0113D17D
S1131A70892B59F40115110509F4F4C0B2E0EB0EF9
S1131A80F11CF801F182E082EDC0F70160E070E042
S1131A90CB01C0E0D0E07F01A0EDAA2EAC0C29E080
S1131AA02A1528F14D2D4260B42E2D2D2870D2FE1A
S1131AB004C0211124C0219622C021112197A5E040
S1131AC0B0E09B01AC01E9DC660F771F881F991F0A
S1131AD06A0D711D811D911D6839A9E97A078A076C
S1131AE0A9E19A0760F0BD2DB660BB2E08C02EEFA9
S1131AF0A2120AC0D3FC50C04D2D4860B42E3196BA
S1131B00D701CC90DB2CC7CF2C2D2F7D253409F0A9
S1131B1043C0A081AD3241F4BD2DB061DB2E7F0105
S1131B2022E0E20EF11C0CC07F01AB3231F04FEF2A
S1131B30E41AF40A21E030E006C0A2E0EA0EF11C47
S1131B40A18122E030E0A053AA3018F0E21AF30A8F
S1131B5023C0F70120E030E02038BCE03B075CF410
S1131B60A901440F551F440F551F240F351F220F81
S1131B70331F2A0F311DAF014F5F5F4F7A01A081E0
S1131B80A053AA3010F4FA01E7CFD4FE03C0319574
S1131B9021953109C20FD31FD1FE09C001151105CA
S1131BA031F0E1E0EE1AF108D801ED92FC9239DB54
S1131BB02D2D2370233019F04B015C0106C04B011D
S1131BC05C01B7FAB094B7F8B09420E030E0A90112
S1131BD0C501B401F1DA882309F43CC0D7FF06C07B
S1131BE0D195C195D1090BEA10E002C003EC10E0D5
S1131BF06801B8E1CB1AD10890E2E92EF12CCE1598
S1131C00DF056CF0F8012591359145915491C5019A
S1131C10B401BDDB4B015C01CE19DF09F0CF0450E8
S1131C201109F594E7940C151D0549F78A2D880FC1
S1131C308B2D881F8F3F41F020E030E0A901C501C2
S1131C40B401BADA811106C082E290E09093FE02F8
S1131C508093FD02C501B40109C060E070E080E832
S1131C609FEF04C060E070E080EC9FE7DF91CF91CC
S1131C701F910F91FF90EF90DF90CF90BF90AF90A6
S1131C809F908F9008959111C4C0803219F08950AB
S1131C908550D0F70895FB01DC014150504088F095
S1131CA08D9181341CF08B350CF4805E6591613428
S1131CB01CF06B350CF4605E861B611171F3990B9B
S1131CC00895881BFCCFFC01059061507040011001
S1131CD0D8F7809590958E0F9F1F0895FC01615051
S1131CE0704001900110D8F7809590958E0F9F1F3A
S1131CF008950F931F93CF93DF93182F092FEB01B0
S1131D008B8181FD03C08FEF9FEF20C082FF10C045
S1131D104E815F812C813D81421753077CF4E88119
S1131D20F9819F012F5F3F4F39832883108306C0B9
S1131D30E885F985812F0995892B29F72E813F8123
S1131D402F5F3F4F3F832E83812F902FDF91CF91C1
S1131D501F910F910895FA01AA27283051F12031DB
S1131D6081F1E8946F936E7F6E5F7F4F8F4F9F4F2B
S1131D70AF4FB1E03ED0B4E03CD0670F781F891F6D
S1131D809A1FA11D680F791F8A1F911DA11D6A0F3B
S1131D90711D811D911DA11D20D009F468943F91EE
S1131DA02AE0269F11243019305D3193DEF6CF01ED
S1131DB00895462F4770405D4193B3E00FD0C9F7B3
S1131DC0F6CF462F4F70405D4A3318F0495D31FD20
S1131DD04052419302D0A9F7EACFB4E0A695979573
S1131DE0879577956795BA95C9F700976105710549
S1131DF008959B01AC010A2E069457954795379593
S1131E002795BA95C9F7620F731F841F951FA01DEC
S10F1E100895992788270895F894FFCFBF
S1131E1C88130000803F0A003C00FF7F5B80FF7F3B
S1131E2C5B8048656C6C6F0A0D0025780A0D000008
S9030000FC
